:020000040000fa
:080000000002040000000000f2
:020000040000fa
:0400080044040000ac
:020000040000fa
:04000c009a03000053
:020000040000fa
:04001000ba0300002f
:020000040000fa
:040014008404000060
:020000040000fa
:04001800640400007c
:020000040000fa
:04001c00cc04000010
:020000040000fa
:04002000da030000ff
:020000040000fa
:04002400cc04000008
:020000040000fa
:04002800cc04000004
:020000040000fa
:04002c00cc04000000
:020000040000fa
:04003000cc040000fc
:020000040000fa
:04003400cc040000f8
:020000040000fa
:04003800cc040000f4
:020000040000fa
:04003c00cc040000f0
:020000040000fa
:04004000cc040000ec
:020000040000fa
:04004400cc040000e8
:020000040000fa
:04004800cc040000e4
:020000040000fa
:04004c00cc040000e0
:020000040000fa
:04005000cc040000dc
:020000040000fa
:04005400cc040000d8
:020000040000fa
:04005800cc040000d4
:020000040000fa
:04005c00cc040000d0
:020000040000fa
:04006000cc040000cc
:020000040000fa
:04006400cc040000c8
:020000040000fa
:04006800cc040000c4
:020000040000fa
:04006c00cc040000c0
:020000040000fa
:04007000cc040000bc
:020000040000fa
:04007400cc040000b8
:020000040000fa
:04007800cc040000b4
:020000040000fa
:04007c00cc040000b0
:020000040000fa
:04008000cc040000ac
:020000040000fa
:04008400cc040000a8
:020000040000fa
:04008800cc040000a4
:020000040000fa
:04008c00cc040000a0
:020000040000fa
:04009000cc0400009c
:020000040000fa
:04009400cc04000098
:020000040000fa
:04009800cc04000094
:020000040000fa
:04009c00cc04000090
:020000040000fa
:0400a000cc0400008c
:020000040000fa
:0400a400cc04000088
:020000040000fa
:0400a800cc04000084
:020000040000fa
:0400ac00cc04000080
:020000040000fa
:0400b000cc0400007c
:020000040000fa
:0400b400cc04000078
:020000040000fa
:0400b800cc04000074
:020000040000fa
:0400bc00cc04000070
:020000040000fa
:0400c000cc0400006c
:020000040000fa
:0400c400cc04000068
:020000040000fa
:0400c800cc04000064
:020000040000fa
:0400cc00cc04000060
:020000040000fa
:0400d000cc0400005c
:020000040000fa
:0400d400cc04000058
:020000040000fa
:0400d800cc04000054
:020000040000fa
:0400dc00a604000076
:020000040000fa
:0400e000cc0400004c
:020000040000fa
:0400e400cc04000048
:020000040000fa
:0400e800cc04000044
:020000040000fa
:0400ec00cc04000040
:020000040000fa
:0400f000cc0400003c
:020000040000fa
:0400f400cc04000038
:020000040000fa
:0400f800cc04000034
:020000040000fa
:0400fc00cc04000030
:020000040000fa
:04010000cc0400002b
:020000040000fa
:04010400cc04000027
:020000040000fa
:04010800cc04000023
:020000040000fa
:04010c00cc0400001f
:020000040000fa
:04011000cc0400001b
:020000040000fa
:04011400cc04000017
:020000040000fa
:04011800cc04000013
:020000040000fa
:04011c00cc0400000f
:020000040000fa
:04012000cc0400000b
:020000040000fa
:04012400cc04000007
:020000040000fa
:04012800cc04000003
:020000040000fa
:04012c00cc040000ff
:020000040000fa
:04013000cc040000fb
:020000040000fa
:04013400cc040000f7
:020000040000fa
:04013800cc040000f3
:020000040000fa
:04013c00cc040000ef
:020000040000fa
:04014000cc040000eb
:020000040000fa
:04014400cc040000e7
:020000040000fa
:04014800cc040000e3
:020000040000fa
:04014c00cc040000df
:020000040000fa
:04015000cc040000db
:020000040000fa
:04015400cc040000d7
:020000040000fa
:04015800cc040000d3
:020000040000fa
:04015c00cc040000cf
:020000040000fa
:04016000cc040000cb
:020000040000fa
:04016400cc040000c7
:020000040000fa
:04016800cc040000c3
:020000040000fa
:04016c00cc040000bf
:020000040000fa
:04017000cc040000bb
:020000040000fa
:04017400cc040000b7
:020000040000fa
:04017800cc040000b3
:020000040000fa
:04017c00cc040000af
:020000040000fa
:04018000cc040000ab
:020000040000fa
:04018400cc040000a7
:020000040000fa
:04018800cc040000a3
:020000040000fa
:04018c00cc0400009f
:020000040000fa
:04019000cc0400009b
:020000040000fa
:04019400cc04000097
:020000040000fa
:04019800cc04000093
:020000040000fa
:04019c00cc0400008f
:020000040000fa
:0401a000cc0400008b
:020000040000fa
:0401a400cc04000087
:020000040000fa
:0401a800cc04000083
:020000040000fa
:0401ac00cc0400007f
:020000040000fa
:0401b000cc0400007b
:020000040000fa
:0401b400cc04000077
:020000040000fa
:0401b800cc04000073
:020000040000fa
:0401bc00cc0400006f
:020000040000fa
:0401c000cc0400006b
:020000040000fa
:0401c400cc04000067
:020000040000fa
:0401c800cc04000063
:020000040000fa
:0401cc00cc0400005f
:020000040000fa
:0401d000cc0400005b
:020000040000fa
:0401d400cc04000057
:020000040000fa
:0401d800cc04000053
:020000040000fa
:0401dc00cc0400004f
:020000040000fa
:0401e000cc0400004b
:020000040000fa
:0401e400cc04000047
:020000040000fa
:0401e800cc04000043
:020000040000fa
:0401ec00cc0400003f
:020000040000fa
:0401f000cc0400003b
:020000040000fa
:0401f400cc04000037
:020000040000fa
:0401f800cc04000033
:020000040000fa
:0401fc00cc0400002f
:020000040000fa
:04020000cc0400002a
:020000040000fa
:04020400cc04000026
:020000040000fa
:04020800cc04000022
:020000040000fa
:04020c00cc0400001e
:020000040000fa
:04021000cc0400001a
:020000040000fa
:04021400cc04000016
:020000040000fa
:04021800cc04000012
:020000040000fa
:04021c00cc0400000e
:020000040000fa
:04022000cc0400000a
:020000040000fa
:04022400cc04000006
:020000040000fa
:04022800cc04000002
:020000040000fa
:04022c00cc040000fe
:020000040000fa
:04023000cc040000fa
:020000040000fa
:04023400cc040000f6
:020000040000fa
:04023800cc040000f2
:020000040000fa
:04023c00cc040000ee
:020000040000fa
:04024000cc040000ea
:020000040000fa
:04024400cc040000e6
:020000040000fa
:04024800cc040000e2
:020000040000fa
:04024c00cc040000de
:020000040000fa
:04025000cc040000da
:020000040000fa
:04025400cc040000d6
:020000040000fa
:04025800cc040000d2
:020000040000fa
:04025c00cc040000ce
:020000040000fa
:04026000cc040000ca
:020000040000fa
:04026400cc040000c6
:020000040000fa
:04026800cc040000c2
:020000040000fa
:04026c00cc040000be
:020000040000fa
:04027000cc040000ba
:020000040000fa
:04027400cc040000b6
:020000040000fa
:04027800cc040000b2
:020000040000fa
:04027c00cc040000ae
:020000040000fa
:04028000cc040000aa
:020000040000fa
:04028400cc040000a6
:020000040000fa
:04028800cc040000a2
:020000040000fa
:04028c00cc0400009e
:020000040000fa
:04029000cc0400009a
:020000040000fa
:04029400cc04000096
:020000040000fa
:04029800cc04000092
:020000040000fa
:04029c00cc0400008e
:020000040000fa
:0402a000cc0400008a
:020000040000fa
:0402a400cc04000086
:020000040000fa
:0402a800cc04000082
:020000040000fa
:0402ac00cc0400007e
:020000040000fa
:0402b000cc0400007a
:020000040000fa
:0402b400cc04000076
:020000040000fa
:0402b800cc04000072
:020000040000fa
:0402bc00cc0400006e
:020000040000fa
:0402c000cc0400006a
:020000040000fa
:0402c400cc04000066
:020000040000fa
:0402c800cc04000062
:020000040000fa
:0402cc00cc0400005e
:020000040000fa
:0402d000cc0400005a
:020000040000fa
:0402d400cc04000056
:020000040000fa
:0402d800cc04000052
:020000040000fa
:0402dc00cc0400004e
:020000040000fa
:0402e000cc0400004a
:020000040000fa
:0402e400cc04000046
:020000040000fa
:0402e800cc04000042
:020000040000fa
:0402ec00cc0400003e
:020000040000fa
:0402f000cc0400003a
:020000040000fa
:0402f400cc04000036
:020000040000fa
:0402f800cc04000032
:020000040000fa
:0402fc00cc0400002e
:020000040000fa
:04030000cc04000029
:020000040000fa
:04030400cc04000025
:020000040000fa
:04030800cc04000021
:020000040000fa
:04030c00cc0400001d
:020000040000fa
:04031000cc04000019
:020000040000fa
:04031400cc04000015
:020000040000fa
:04031800cc04000011
:020000040000fa
:04031c00cc0400000d
:020000040000fa
:04032000cc04000009
:020000040000fa
:10040000af0221000eff2c000e018800000020002a
:100410000000e000020032000001200020028800fd
:10042000140007005e0107000000e00003003a002e
:100430008089200001002000020037000000200019
:1004400001002000810f70004220ae000f00070065
:10045000000020000000e0004220ae00000002008a
:1004600000000000a8070200000000000040da00c1
:100470000000fe00200020000000e000020032002a
:10048000100020009001880000000600a1028800f2
:10049000800478000000eb001f003700e284440075
:1004a00054a0b4009905ba00e284440054a0b400fa
:1004b0009906ba00e284440054a0b4000006eb00a0
:1004c000476fde00fd07b200ae018800636ce100fb
:1004d00003003a000ad801000000eb000e003700cc
:1004e000606ce10008003a00004deb000a05e800ee
:1004f000020039003420ec000af0a0008b05e9006e
:10050000f9ff3e00040037006168e100010032009d
:100510000086eb000b00070019c7ba001905ba00e6
:100520000e04e00003003a000a00e000dbff3a009e
:1005300000000600fe07b200ae0288008a047800c0
:10054000f5ff37000cd0a300e20f4d001c003b006c
:1005500089027800354dba000a05e800020039002a
:100560003420ec000af0a0008b05e9000f003200f7
:10057000254dba000a05e800020039003420ec00dd
:100580000af0a0008b05e900080032000c00e00032
:100590000600320015cdba000a05e8000200390055
:1005a0003420ec000af0a0008b05e9008984e80003
:1005b00054a0b4000b00e000e2ff3a000000060087
:1005c0009902ba00055d78008b05e900f7ff32005b
:1005d000c82ade00055d78008b05e900f3ff3200d4
:1005e0000c00e000f1ff320019ddba00eeff370029
:1005f0006100e10001003200100005005400f80025
:1006000050102000a002880000f927001000ba0056
:100610005400f9000700260000f0a6008703d1006f
:100620000703780001c4fe000003eb000120200056
:1006300091018800e18a2800111303008703e90073
:10064000fdff3a0000f0a7000000050000f0a00048
:1006500080c4fe0086037800f3ff37000408200002
:10066000010037000002eb006100e10001003200f0
:10067000100005003200f8003400f8008102780014
:10068000930188003200be000100e0000c0032003f
:100690000470a70000f0a00032037800c733de002a
:1006a000848343004220af008703e800a70188004d
:1006b000f607b2007f30e100040032002000200085
:1006c0003400f9003200f900000006008100e90062
:1006d0000500e00003003a00018009003210030029
:1006e000e8ff37000180090032900300d561ae00b9
:1006f000e4ff370030002000f1ff370050052000f4
:10070000b00e8800a00a2000b00e8800d3e1a80037
:100710000000060050052000b00e8800a00a20004e
:10072000b00e8800d3e1a90000000600de06040038
:10073000000000003600f800809fbe00829fbe00cf
:10074000849fbe00869fbe000000fa00c068a9001a
:10075000200020004c0207000080fa004f03be007a
:100760004f02be004f01be004f00be003600f90030
:10077000004006003600f800809fbe00829fbe0049
:10078000849fbe00869fbe000000fa00c608a90034
:10079000700020003c0207000080fa004f03be00fa
:1007a0004f02be004f01be004f00be003600f900f0
:1007b000004006003600f800809fbe00829fbe0009
:1007c000849fbe00869fbe000000fa002046800085
:1007d000700060000000e00003003200c488a9003f
:1007e000a00020002802070021468000000420000d
:1007f000008060000000e00003003200c4c8a900cf
:10080000e0002000200207002146800000022000b6
:10081000008060000000e00003003200c4a8a900ce
:1008200090002000180207002146800000102000e0
:10083000008060000000e00003003200c508a9004d
:10084000c000200010020700214680000020200088
:10085000008060000000e00003003200c528a9000d
:10086000d0002000080207002046800061006000e0
:100870000000e00003003200c408a900b00020001e
:1008800001020700ffff37003600f800809fbe001e
:10089000829fbe00849fbe00869fbe000000fa00bb
:1008a000c028a9000000eb00f70107000080fa0053
:1008b0004f03be004f02be004f01be004f00be00fe
:1008c0003600f900004006003600f800809fbe00a8
:1008d000829fbe00849fbe00869fbe000000fa007b
:1008e000c088a90030002000e70107000080fa005e
:1008f0004f03be004f02be004f01be004f00be00be
:100900003600f900004006003600f800809fbe0067
:10091000829fbe00849fbe00869fbe000000fa003a
:10092000e0010700c048a90010002000d601070020
:100930000080fa004f03be004f02be004f01be0010
:100940004f00be003600f900004006003600f800f7
:10095000809fbe00829fbe00849fbe00869fbe0017
:100960000000fa00308080000000e0000200320049
:10097000308080000000010005a8a9000080fa0076
:100980004f03be004f02be004f01be004f00be002d
:100990003600f900004006000040da000000fe00ca
:0409a000000005004e
:020000040000fa
:1009a4000400fa00100798000040eb00004f7800a4
:1009b4001e0090000000e00002003d0010c0b300e3
:1009c400004f78001e4078000080fa000000060006
:1009d4000400fa00100798000040eb00004f780074
:1009e4009e00900000002400008060000000e000f1
:1009f4000200320010c0b300004f78001e4078009f
:100a04000080fa00000006000400fa0010079800b5
:100a14000040eb00004f78009e0090000020200072
:100a2400008060000000e0000200320010c0b3004b
:100a3400004f78001e4078000080fa000000060095
:100a44000400fa00100798000040eb00004f780003
:100a54009e00900000082000008060000000e0007c
:100a64000200320010c0b300004f78001e4078002e
:100a74000080fa00000006000400fa001007980045
:100a84000040eb00004f78009e009000000420001e
:100a9400008060000000e0000200320010c0b300db
:100aa400004f78001e4078000080fa000000060025
:100ab4000400fa00100798000040eb00004f780093
:100ac4001e009000700060000000e0000200320090
:100ad40010c0b300004f78001e4078000080fa0078
:100ae400000006000200fa00000f78009e80ea0071
:100af400007c800000806000007c88000080fa0098
:100b0400000006000000fa00007c80000080fa006b
:100b1400000006000200fa00faff0700000f780048
:100b24001e0078009eff07000004e000020032006f
:100b340000002800ebff07001e007800a4ff070058
:100b44000004e0000200320000002400e5ff07007a
:100b54001e007800acff07000004e0000200320031
:100b640000202000dfff07001e007800b4ff07000c
:100b74000004e0000200320000082000d9ff070052
:100b84001e007800bcff07000004e00002003200f1
:100b940000042000d3ff07001e007800c4ff0700f4
:100ba4000004e0000200320000012000cdff070035
:100bb4000080fa00000006000000fa00802fef0019
:100bc4000080fa00000006000000fa00c3e8a80054
:100bd40000000000000000000080fa000000060091
:100be4000000fa00c3e8a9000000000000000000b3
:100bf4000080fa00000006000000fa00f8ff070079
:100c040001010700f0ff0700e06d2000610007000c
:100c140025a8a8000080fa00000006000000fa00e1
:100c240000002800e00288000080fa0000000600ae
:100c34000000fa00000024000003880010c0b30084
:100c440000f0b7000080fa00000006000000fa007f
:100c54000070ef00000000004003800061006000ad
:100c64000000e000fcff3200800020002003880028
:100c74000080fa00000006000200fa000040eb00c9
:100c8400004f78004003800061006000004078005d
:100c94000004e0000200320010c0b300004f7800ee
:100ca4001e4078000080fa00000006000000fa00f0
:100cb40000d0bf000080fa00000006000400fa0023
:100cc4006000b800008fbe00b00380008000eb001d
:100cd400c000dd0000002000008fbe00a0038000e3
:100ce4008000eb003e017000ae8170000200be0087
:100cf4000080fa00000006000400fa006000b8005a
:100d0400008fbe00d00380008000eb00c000dd0037
:100d140000002000008fbe00c00380008000eb00b4
:100d24003e017000ae8170000200be000080fa0037
:100d3400000006000200fa000000eb00000f78003b
:100d440041038000100e2000008f60001e00780018
:100d54000080fa00000006000400fa006000b800f9
:100d6400008fbe00700380008000eb00c000dd0037
:100d740000002000008fbe00600380008000eb00b4
:100d84003e017000ae8170000200be000080fa00d7
:100d9400000006000200fa00000f78001e00780030
:100da4000000e000020032009e00780031808800dc
:100db4000080fa00000006000000fa000080fa003b
:100dc400000006000000fa0010002300307c8800b8
:100dd40060092000407c88008c2fef001004200064
:100de400507c880010102800707c880000032000cc
:100df400807c880030072000907c88000050200010
:100e0400d07c8800b82fef00ba2fef00be2fef0080
:100e1400002def00a42fef00a62fef00a82fef0066
:100e2400aa2fef00ae2fef00b02fef00b22fef008c
:100e34002200200080072000a109200053f8200090
:100e44008049780081497800824978000001eb00ec
:100e5400600420007105200043f8200080497800d8
:100e640081497800824978000080fa000000060079
:100e74000000fa00707c8000ee800a000000000090
:100e84000080fb0000f0a7000000ea000000ea0078
:100e94004f00de00004078000080fa0000000600e9
:100ea4000000fa00062eef00222eef003e2eef0087
:100eb4005a2eef00762eef00f0012000107088000b
:100ec400d0ff2f00f07088000080eb00d071880004
:100ed4000080eb00b0728800c0ff2f009073880080
:100ee4000a2eef00262eef00422eef005e2eef00ba
:100ef4007a2eef000c2eef00282eef00442eef0088
:100f0400602eef007c2eef00082eef00242eef0061
:100f1400402eef005c2eef00782eef00f001200051
:100f24000070880040382000e0708800f00c200039
:100f3400c071880000c02700a0728800000420004f
:100f4400807388000080fa00000006000000fa00a8
:100f5400600007000100370000000000004828007e
:100f6400e101200063000700b073800000800a00e4
:100f7400000000000004a200614060000080fb004b
:100f840061006000b17380000100a10001007000e5
:100f9400b0738800a17380000010200000806000fe
:100fa4000000e000ecff3a00b073800011800a00fa
:100fb400000000000004a200614060000080fb000b
:100fc4006100600000004000b17380000110a100c6
:100fd40001007000b0738800e0ff37000000fe00dd
:100fe400ae06020000000000821f7800128080001c
:100ff4000000110002002000810019004f01780058
:10100400000006000000fe00801f7800811f7800a9
:10101400821f780060038000801f7800ae06020003
:10102400000000004f017800020150000201e900b5
:10103400128088004f017800cf0078004f007800bc
:10104400000006000000fa00b1428000f0f82f0012
:10105400008060000040a000b04288000080fa00d8
:10106400000006000000fa00b1428000f0f82f00f2
:10107400008060000060a000b04288000080fa0098
:10108400000006000200fa00000f78009e007800bd
:10109400418088000000fe000080fa000000060085
:1010a4000000fa00a000210080077800200221003f
:1010b400000188000080fa00000006000000fa0029
:1010c400c3e8a80000000000000000000080fa004f
:1010d400000006000000fa003aff070070ff070056
:1010e400c5fe0700f5ff0700d6ff07000080fa00e1
:0410f40000000600f2
:020000040000fa
:1010f800f03fb1000180b10006003500ee030900a1
:1011080000000000403fb1000180b100fbff3d003e
:101118001000b000203fb000020035000080090038
:081128000000000000000600b9
:020000040000fa
:101130000a100000200000008000000008100000dd
:101140000200000082000000ffff0000001000000d
:0c1150000800000080000000000000000b
:020000040000fa
:04115c00ffffff0092
:020000040000fa
:02000004000af0
:04fe0000ffffff0001
:020000040000fa
:02000004000af0
:04fe2000ffffff00e1
:020000040000fa
:02000004000af0
:04fe30007affff0056
:020000040000fa
:02000004000af0
:04fe3800bdffff000b
:020000040000fa
:02000004000af0
:04fe4000f453ff0078
:020000040000fa
:02000004000af0
:04fe4800ffffff00b9
:020000040000fa
:02000004000af0
:04fe5000deffff00d2
:020000040000fa
:02000004000af0
:04fe58000000ff00a7
:020000040000fa
:02000004000af0
:04fe60000000ff009f
:020000040000fa
:02000004000af0
:04fe68000000ff0097
:020000040000fa
:02000004000af0
:04fe70000000ff008f
:020000040000fa
:02000004000af0
:04fe7800ffffff0089
:020000040000fa
:02000004000af0
:04fe8000fffcff0084
:020000040000fa
:02000004000af0
:04fe8800ffffff0079
:020000040000fa
:02000004000af0
:04feb000ffffff0051
:020000040000fa
:02000004000af0
:04fec000ffffff0041
:020000040000fa
:02000004000af0
:04fed000ffffff0031
:020000040000fa
:02000004000af0
:04fee000ffffff0021
:020000040000fa
:02000004000af0
:04fef000ffffff0011
:020000040000fa
:02000004000af0
:04fff800ffffff0008
:020000040000fa
:020000040100f9
:04300000ffffff00cf
:00000001FF
